{
  "_format": "hh-sol-artifact-1",
  "contractName": "CampaignFactory",
  "sourceName": "contracts/CampaignFactory.sol",
  "abi": [
    {
      "anonymous": false,
      "inputs": [
        {
          "indexed": false,
          "internalType": "address",
          "name": "campaignAddress",
          "type": "address"
        },
        {
          "indexed": false,
          "internalType": "address",
          "name": "creator",
          "type": "address"
        },
        {
          "indexed": false,
          "internalType": "string",
          "name": "name",
          "type": "string"
        },
        {
          "indexed": false,
          "internalType": "string",
          "name": "description",
          "type": "string"
        }
      ],
      "name": "CampaignCreated",
      "type": "event"
    },
    {
      "inputs": [
        {
          "internalType": "string",
          "name": "_name",
          "type": "string"
        },
        {
          "internalType": "string",
          "name": "_description",
          "type": "string"
        },
        {
          "internalType": "string[]",
          "name": "milestoneNames",
          "type": "string[]"
        },
        {
          "internalType": "string[]",
          "name": "milestoneDescriptions",
          "type": "string[]"
        },
        {
          "internalType": "uint256[]",
          "name": "milestoneGoals",
          "type": "uint256[]"
        }
      ],
      "name": "createCampaign",
      "outputs": [],
      "stateMutability": "nonpayable",
      "type": "function"
    },
    {
      "inputs": [
        {
          "internalType": "uint256",
          "name": "",
          "type": "uint256"
        }
      ],
      "name": "deployedCampaigns",
      "outputs": [
        {
          "internalType": "address",
          "name": "",
          "type": "address"
        }
      ],
      "stateMutability": "view",
      "type": "function"
    },
    {
      "inputs": [],
      "name": "getDeployedCampaigns",
      "outputs": [
        {
          "internalType": "address[]",
          "name": "",
          "type": "address[]"
        }
      ],
      "stateMutability": "view",
      "type": "function"
    }
  ],
  "bytecode": "0x6080604052348015600f57600080fd5b506132268061001f6000396000f3fe608060405234801561001057600080fd5b50600436106100415760003560e01c8063339d50a5146100465780634acb9d4f14610076578063e1ba0afc14610094575b600080fd5b610060600480360381019061005b919061031c565b6100b0565b60405161006d919061038a565b60405180910390f35b61007e6100ef565b60405161008b9190610463565b60405180910390f35b6100ae60048036038101906100a99190610774565b61017d565b005b600081815481106100c057600080fd5b906000526020600020016000915054906101000a900473ffffffffffffffffffffffffffffffffffffffff1681565b6060600080548060200260200160405190810160405280929190818152602001828054801561017357602002820191906000526020600020905b8160009054906101000a900473ffffffffffffffffffffffffffffffffffffffff1673ffffffffffffffffffffffffffffffffffffffff1681526020019060010190808311610129575b5050505050905090565b6000835111801561018f575081518351145b801561019c575080518351145b6101db576040517f08c379a00000000000000000000000000000000000000000000000000000000081526004016101d2906108d8565b60405180910390fd5b60003386868686866040516101ef906102c5565b6101fe96959493929190610b30565b604051809103906000f08015801561021a573d6000803e3d6000fd5b5090506000819080600181540180825580915050600190039060005260206000200160009091909190916101000a81548173ffffffffffffffffffffffffffffffffffffffff021916908373ffffffffffffffffffffffffffffffffffffffff1602179055507fab1f4669fd839e6b25aaf40386e988a4140f86128dc9937ac03c85c0c3bf0f36813388886040516102b59493929190610bb4565b60405180910390a1505050505050565b6125e980610c0883390190565b6000604051905090565b600080fd5b600080fd5b6000819050919050565b6102f9816102e6565b811461030457600080fd5b50565b600081359050610316816102f0565b92915050565b600060208284031215610332576103316102dc565b5b600061034084828501610307565b91505092915050565b600073ffffffffffffffffffffffffffffffffffffffff82169050919050565b600061037482610349565b9050919050565b61038481610369565b82525050565b600060208201905061039f600083018461037b565b92915050565b600081519050919050565b600082825260208201905092915050565b6000819050602082019050919050565b6103da81610369565b82525050565b60006103ec83836103d1565b60208301905092915050565b6000602082019050919050565b6000610410826103a5565b61041a81856103b0565b9350610425836103c1565b8060005b8381101561045657815161043d88826103e0565b9750610448836103f8565b925050600181019050610429565b5085935050505092915050565b6000602082019050818103600083015261047d8184610405565b905092915050565b600080fd5b600080fd5b6000601f19601f8301169050919050565b7f4e487b7100000000000000000000000000000000000000000000000000000000600052604160045260246000fd5b6104d88261048f565b810181811067ffffffffffffffff821117156104f7576104f66104a0565b5b80604052505050565b600061050a6102d2565b905061051682826104cf565b919050565b600067ffffffffffffffff821115610536576105356104a0565b5b61053f8261048f565b9050602081019050919050565b82818337600083830152505050565b600061056e6105698461051b565b610500565b90508281526020810184848401111561058a5761058961048a565b5b61059584828561054c565b509392505050565b600082601f8301126105b2576105b1610485565b5b81356105c284826020860161055b565b91505092915050565b600067ffffffffffffffff8211156105e6576105e56104a0565b5b602082029050602081019050919050565b600080fd5b600061060f61060a846105cb565b610500565b90508083825260208201905060208402830185811115610632576106316105f7565b5b835b8181101561067957803567ffffffffffffffff81111561065757610656610485565b5b808601610664898261059d565b85526020850194505050602081019050610634565b5050509392505050565b600082601f83011261069857610697610485565b5b81356106a88482602086016105fc565b91505092915050565b600067ffffffffffffffff8211156106cc576106cb6104a0565b5b602082029050602081019050919050565b60006106f06106eb846106b1565b610500565b90508083825260208201905060208402830185811115610713576107126105f7565b5b835b8181101561073c57806107288882610307565b845260208401935050602081019050610715565b5050509392505050565b600082601f83011261075b5761075a610485565b5b813561076b8482602086016106dd565b91505092915050565b600080600080600060a086880312156107905761078f6102dc565b5b600086013567ffffffffffffffff8111156107ae576107ad6102e1565b5b6107ba8882890161059d565b955050602086013567ffffffffffffffff8111156107db576107da6102e1565b5b6107e78882890161059d565b945050604086013567ffffffffffffffff811115610808576108076102e1565b5b61081488828901610683565b935050606086013567ffffffffffffffff811115610835576108346102e1565b5b61084188828901610683565b925050608086013567ffffffffffffffff811115610862576108616102e1565b5b61086e88828901610746565b9150509295509295909350565b600082825260208201905092915050565b7f496e76616c6964206d696c6573746f6e657320696e7075740000000000000000600082015250565b60006108c260188361087b565b91506108cd8261088c565b602082019050919050565b600060208201905081810360008301526108f1816108b5565b9050919050565b600081519050919050565b60005b83811015610921578082015181840152602081019050610906565b60008484015250505050565b6000610938826108f8565b610942818561087b565b9350610952818560208601610903565b61095b8161048f565b840191505092915050565b600081519050919050565b600082825260208201905092915050565b6000819050602082019050919050565b600082825260208201905092915050565b60006109ae826108f8565b6109b88185610992565b93506109c8818560208601610903565b6109d18161048f565b840191505092915050565b60006109e883836109a3565b905092915050565b6000602082019050919050565b6000610a0882610966565b610a128185610971565b935083602082028501610a2485610982565b8060005b85811015610a605784840389528151610a4185826109dc565b9450610a4c836109f0565b925060208a01995050600181019050610a28565b50829750879550505050505092915050565b600081519050919050565b600082825260208201905092915050565b6000819050602082019050919050565b610aa7816102e6565b82525050565b6000610ab98383610a9e565b60208301905092915050565b6000602082019050919050565b6000610add82610a72565b610ae78185610a7d565b9350610af283610a8e565b8060005b83811015610b23578151610b0a8882610aad565b9750610b1583610ac5565b925050600181019050610af6565b5085935050505092915050565b600060c082019050610b45600083018961037b565b8181036020830152610b57818861092d565b90508181036040830152610b6b818761092d565b90508181036060830152610b7f81866109fd565b90508181036080830152610b9381856109fd565b905081810360a0830152610ba78184610ad2565b9050979650505050505050565b6000608082019050610bc9600083018761037b565b610bd6602083018661037b565b8181036040830152610be8818561092d565b90508181036060830152610bfc818461092d565b90509594505050505056fe608060405234801561001057600080fd5b506040516125e93803806125e9833981810160405281019061003291906105f6565b60008351118015610044575081518351145b8015610051575080518351145b610090576040517f08c379a00000000000000000000000000000000000000000000000000000000081526004016100879061076c565b60405180910390fd5b856000806101000a81548173ffffffffffffffffffffffffffffffffffffffff021916908373ffffffffffffffffffffffffffffffffffffffff16021790555084600190816100df91906109a3565b5083600290816100ef91906109a3565b5060005b83518110156102385760046040518060c0016040528086848151811061011c5761011b610a75565b5b6020026020010151815260200185848151811061013c5761013b610a75565b5b6020026020010151815260200184848151811061015c5761015b610a75565b5b602002602001015181526020016000815260200160001515815260200160001515815250908060018154018082558091505060019003906000526020600020906005020160009091909190915060008201518160000190816101be91906109a3565b5060208201518160010190816101d491906109a3565b50604082015181600201556060820151816003015560808201518160040160006101000a81548160ff02191690831515021790555060a08201518160040160016101000a81548160ff021916908315150217905550505080806001019150506100f3565b50505050505050610aa4565b6000604051905090565b600080fd5b600080fd5b600073ffffffffffffffffffffffffffffffffffffffff82169050919050565b600061028382610258565b9050919050565b61029381610278565b811461029e57600080fd5b50565b6000815190506102b08161028a565b92915050565b600080fd5b600080fd5b6000601f19601f8301169050919050565b7f4e487b7100000000000000000000000000000000000000000000000000000000600052604160045260246000fd5b610309826102c0565b810181811067ffffffffffffffff82111715610328576103276102d1565b5b80604052505050565b600061033b610244565b90506103478282610300565b919050565b600067ffffffffffffffff821115610367576103666102d1565b5b610370826102c0565b9050602081019050919050565b60005b8381101561039b578082015181840152602081019050610380565b60008484015250505050565b60006103ba6103b58461034c565b610331565b9050828152602081018484840111156103d6576103d56102bb565b5b6103e184828561037d565b509392505050565b600082601f8301126103fe576103fd6102b6565b5b815161040e8482602086016103a7565b91505092915050565b600067ffffffffffffffff821115610432576104316102d1565b5b602082029050602081019050919050565b600080fd5b600061045b61045684610417565b610331565b9050808382526020820190506020840283018581111561047e5761047d610443565b5b835b818110156104c557805167ffffffffffffffff8111156104a3576104a26102b6565b5b8086016104b089826103e9565b85526020850194505050602081019050610480565b5050509392505050565b600082601f8301126104e4576104e36102b6565b5b81516104f4848260208601610448565b91505092915050565b600067ffffffffffffffff821115610518576105176102d1565b5b602082029050602081019050919050565b6000819050919050565b61053c81610529565b811461054757600080fd5b50565b60008151905061055981610533565b92915050565b600061057261056d846104fd565b610331565b9050808382526020820190506020840283018581111561059557610594610443565b5b835b818110156105be57806105aa888261054a565b845260208401935050602081019050610597565b5050509392505050565b600082601f8301126105dd576105dc6102b6565b5b81516105ed84826020860161055f565b91505092915050565b60008060008060008060c087890312156106135761061261024e565b5b600061062189828a016102a1565b965050602087015167ffffffffffffffff81111561064257610641610253565b5b61064e89828a016103e9565b955050604087015167ffffffffffffffff81111561066f5761066e610253565b5b61067b89828a016103e9565b945050606087015167ffffffffffffffff81111561069c5761069b610253565b5b6106a889828a016104cf565b935050608087015167ffffffffffffffff8111156106c9576106c8610253565b5b6106d589828a016104cf565b92505060a087015167ffffffffffffffff8111156106f6576106f5610253565b5b61070289828a016105c8565b9150509295509295509295565b600082825260208201905092915050565b7f496e76616c6964206d696c6573746f6e657320696e7075740000000000000000600082015250565b600061075660188361070f565b915061076182610720565b602082019050919050565b6000602082019050818103600083015261078581610749565b9050919050565b600081519050919050565b7f4e487b7100000000000000000000000000000000000000000000000000000000600052602260045260246000fd5b600060028204905060018216806107de57607f821691505b6020821081036107f1576107f0610797565b5b50919050565b60008190508160005260206000209050919050565b60006020601f8301049050919050565b600082821b905092915050565b6000600883026108597fffffffffffffffffffffffffffffffffffffffffffffffffffffffffffffffff8261081c565b610863868361081c565b95508019841693508086168417925050509392505050565b6000819050919050565b60006108a061089b61089684610529565b61087b565b610529565b9050919050565b6000819050919050565b6108ba83610885565b6108ce6108c6826108a7565b848454610829565b825550505050565b600090565b6108e36108d6565b6108ee8184846108b1565b505050565b5b81811015610912576109076000826108db565b6001810190506108f4565b5050565b601f82111561095757610928816107f7565b6109318461080c565b81016020851015610940578190505b61095461094c8561080c565b8301826108f3565b50505b505050565b600082821c905092915050565b600061097a6000198460080261095c565b1980831691505092915050565b60006109938383610969565b9150826002028217905092915050565b6109ac8261078c565b67ffffffffffffffff8111156109c5576109c46102d1565b5b6109cf82546107c6565b6109da828285610916565b600060209050601f831160018114610a0d57600084156109fb578287015190505b610a058582610987565b865550610a6d565b601f198416610a1b866107f7565b60005b82811015610a4357848901518255600182019150602085019450602081019050610a1e565b86831015610a605784890151610a5c601f891682610969565b8355505b6001600288020188555050505b505050505050565b7f4e487b7100000000000000000000000000000000000000000000000000000000600052603260045260246000fd5b611b3680610ab36000396000f3fe6080604052600436106100a75760003560e01c8063968ed60011610064578063968ed600146101be578063a00c96d7146101e9578063a85f312814610218578063d7bb99ba14610241578063e89e4ed61461024b578063e9d800201461028d576100a7565b806306fdde03146100ac578063155dd5ee146100d757806342e94c9014610100578063481c6a751461013d578063629e4ed0146101685780637284e41614610193575b600080fd5b3480156100b857600080fd5b506100c16102ca565b6040516100ce91906110a9565b60405180910390f35b3480156100e357600080fd5b506100fe60048036038101906100f99190611106565b610358565b005b34801561010c57600080fd5b5061012760048036038101906101229190611191565b61066f565b60405161013491906111cd565b60405180910390f35b34801561014957600080fd5b50610152610687565b60405161015f91906111f7565b60405180910390f35b34801561017457600080fd5b5061017d6106ab565b60405161018a91906113d8565b60405180910390f35b34801561019f57600080fd5b506101a8610878565b6040516101b591906110a9565b60405180910390f35b3480156101ca57600080fd5b506101d3610906565b6040516101e091906111cd565b60405180910390f35b3480156101f557600080fd5b506101fe61090c565b60405161020f9594939291906113fa565b60405180910390f35b34801561022457600080fd5b5061023f600480360381019061023a9190611106565b610957565b005b610249610b9e565b005b34801561025757600080fd5b50610272600480360381019061026d9190611106565b610e64565b6040516102849695949392919061145c565b60405180910390f35b34801561029957600080fd5b506102b460048036038101906102af9190611106565b610fda565b6040516102c191906111f7565b60405180910390f35b600180546102d7906114fa565b80601f0160208091040260200160405190810160405280929190818152602001828054610303906114fa565b80156103505780601f1061032557610100808354040283529160200191610350565b820191906000526020600020905b81548152906001019060200180831161033357829003601f168201915b505050505081565b60008054906101000a900473ffffffffffffffffffffffffffffffffffffffff1673ffffffffffffffffffffffffffffffffffffffff163373ffffffffffffffffffffffffffffffffffffffff16146103e6576040517f08c379a00000000000000000000000000000000000000000000000000000000081526004016103dd9061159d565b60405180910390fd5b600480549050811061042d576040517f08c379a000000000000000000000000000000000000000000000000000000000815260040161042490611609565b60405180910390fd5b60006004828154811061044357610442611629565b5b906000526020600020906005020190508060040160009054906101000a900460ff166104a4576040517f08c379a000000000000000000000000000000000000000000000000000000000815260040161049b906116a4565b60405180910390fd5b8060040160019054906101000a900460ff16156104f6576040517f08c379a00000000000000000000000000000000000000000000000000000000081526004016104ed90611710565b60405180910390fd5b806002015481600301541015610541576040517f08c379a00000000000000000000000000000000000000000000000000000000081526004016105389061177c565b60405180910390fd5b6000816002015490508047101561058d576040517f08c379a0000000000000000000000000000000000000000000000000000000008152600401610584906117e8565b60405180910390fd5b60018260040160016101000a81548160ff02191690831515021790555060008054906101000a900473ffffffffffffffffffffffffffffffffffffffff1673ffffffffffffffffffffffffffffffffffffffff166108fc829081150290604051600060405180830381858888f19350505050158015610610573d6000803e3d6000fd5b507feaff4b37086828766ad3268786972c0cd24259d4c87a80f9d3963a3c3d999b0d60008054906101000a900473ffffffffffffffffffffffffffffffffffffffff1682604051610662929190611808565b60405180910390a1505050565b60056020528060005260406000206000915090505481565b60008054906101000a900473ffffffffffffffffffffffffffffffffffffffff1681565b60606004805480602002602001604051908101604052809291908181526020016000905b8282101561086f57838290600052602060002090600502016040518060c0016040529081600082018054610702906114fa565b80601f016020809104026020016040519081016040528092919081815260200182805461072e906114fa565b801561077b5780601f106107505761010080835404028352916020019161077b565b820191906000526020600020905b81548152906001019060200180831161075e57829003601f168201915b50505050508152602001600182018054610794906114fa565b80601f01602080910402602001604051908101604052809291908181526020018280546107c0906114fa565b801561080d5780601f106107e25761010080835404028352916020019161080d565b820191906000526020600020905b8154815290600101906020018083116107f057829003601f168201915b5050505050815260200160028201548152602001600382015481526020016004820160009054906101000a900460ff161515151581526020016004820160019054906101000a900460ff161515151581525050815260200190600101906106cf565b50505050905090565b60028054610885906114fa565b80601f01602080910402602001604051908101604052809291908181526020018280546108b1906114fa565b80156108fe5780601f106108d3576101008083540402835291602001916108fe565b820191906000526020600020905b8154815290600101906020018083116108e157829003601f168201915b505050505081565b60035481565b60008060008060008060009054906101000a900473ffffffffffffffffffffffffffffffffffffffff1660035447600680549050600480549050945094509450945094509091929394565b60008054906101000a900473ffffffffffffffffffffffffffffffffffffffff1673ffffffffffffffffffffffffffffffffffffffff163373ffffffffffffffffffffffffffffffffffffffff16146109e5576040517f08c379a00000000000000000000000000000000000000000000000000000000081526004016109dc9061159d565b60405180910390fd5b6004805490508110610a2c576040517f08c379a0000000000000000000000000000000000000000000000000000000008152600401610a2390611609565b60405180910390fd5b600060048281548110610a4257610a41611629565b5b906000526020600020906005020190508060040160009054906101000a900460ff1615610aa4576040517f08c379a0000000000000000000000000000000000000000000000000000000008152600401610a9b9061187d565b60405180910390fd5b8060040160019054906101000a900460ff1615610af6576040517f08c379a0000000000000000000000000000000000000000000000000000000008152600401610aed90611710565b60405180910390fd5b806002015481600301541015610b41576040517f08c379a0000000000000000000000000000000000000000000000000000000008152600401610b389061177c565b60405180910390fd5b60018160040160006101000a81548160ff0219169083151502179055507f9cd873c824a4aad34c119da4a554f26a7b3be7b1186429c2e0af76d7019adc3c8282600001604051610b92929190611936565b60405180910390a15050565b60003411610be1576040517f08c379a0000000000000000000000000000000000000000000000000000000008152600401610bd8906119d8565b60405180910390fd5b6000600560003373ffffffffffffffffffffffffffffffffffffffff1673ffffffffffffffffffffffffffffffffffffffff1681526020019081526020016000205403610c8c576006339080600181540180825580915050600190039060005260206000200160009091909190916101000a81548173ffffffffffffffffffffffffffffffffffffffff021916908373ffffffffffffffffffffffffffffffffffffffff1602179055505b34600560003373ffffffffffffffffffffffffffffffffffffffff1673ffffffffffffffffffffffffffffffffffffffff1681526020019081526020016000206000828254610cdb9190611a27565b925050819055503460036000828254610cf49190611a27565b92505081905550600034905060005b60048054905081108015610d175750600082115b15610e1257600060048281548110610d3257610d31611629565b5b90600052602060002090600502019050806002015481600301541015610dfe57600081600301548260020154610d689190611a5b565b9050808411610d955783826003016000828254610d859190611a27565b9250508190555060009350610dbf565b80826003016000828254610da99190611a27565b925050819055508084610dbc9190611a5b565b93505b7f03ba09f38b23ad2697f2c208e0c31023842b2f3da43982784195f20216b2291f838360030154604051610df4929190611a8f565b60405180910390a1505b508080610e0a90611ab8565b915050610d03565b503373ffffffffffffffffffffffffffffffffffffffff167f6770260ea820d2f539364e7617e021543aaf6d192f2fd2a47c20db6bd99a4eb934604051610e5991906111cd565b60405180910390a250565b60048181548110610e7457600080fd5b9060005260206000209060050201600091509050806000018054610e97906114fa565b80601f0160208091040260200160405190810160405280929190818152602001828054610ec3906114fa565b8015610f105780601f10610ee557610100808354040283529160200191610f10565b820191906000526020600020905b815481529060010190602001808311610ef357829003601f168201915b505050505090806001018054610f25906114fa565b80601f0160208091040260200160405190810160405280929190818152602001828054610f51906114fa565b8015610f9e5780601f10610f7357610100808354040283529160200191610f9e565b820191906000526020600020905b815481529060010190602001808311610f8157829003601f168201915b5050505050908060020154908060030154908060040160009054906101000a900460ff16908060040160019054906101000a900460ff16905086565b60068181548110610fea57600080fd5b906000526020600020016000915054906101000a900473ffffffffffffffffffffffffffffffffffffffff1681565b600081519050919050565b600082825260208201905092915050565b60005b83811015611053578082015181840152602081019050611038565b60008484015250505050565b6000601f19601f8301169050919050565b600061107b82611019565b6110858185611024565b9350611095818560208601611035565b61109e8161105f565b840191505092915050565b600060208201905081810360008301526110c38184611070565b905092915050565b600080fd5b6000819050919050565b6110e3816110d0565b81146110ee57600080fd5b50565b600081359050611100816110da565b92915050565b60006020828403121561111c5761111b6110cb565b5b600061112a848285016110f1565b91505092915050565b600073ffffffffffffffffffffffffffffffffffffffff82169050919050565b600061115e82611133565b9050919050565b61116e81611153565b811461117957600080fd5b50565b60008135905061118b81611165565b92915050565b6000602082840312156111a7576111a66110cb565b5b60006111b58482850161117c565b91505092915050565b6111c7816110d0565b82525050565b60006020820190506111e260008301846111be565b92915050565b6111f181611153565b82525050565b600060208201905061120c60008301846111e8565b92915050565b600081519050919050565b600082825260208201905092915050565b6000819050602082019050919050565b600082825260208201905092915050565b600061125a82611019565b611264818561123e565b9350611274818560208601611035565b61127d8161105f565b840191505092915050565b611291816110d0565b82525050565b60008115159050919050565b6112ac81611297565b82525050565b600060c08301600083015184820360008601526112cf828261124f565b915050602083015184820360208601526112e9828261124f565b91505060408301516112fe6040860182611288565b5060608301516113116060860182611288565b50608083015161132460808601826112a3565b5060a083015161133760a08601826112a3565b508091505092915050565b600061134e83836112b2565b905092915050565b6000602082019050919050565b600061136e82611212565b611378818561121d565b93508360208202850161138a8561122e565b8060005b858110156113c657848403895281516113a78582611342565b94506113b283611356565b925060208a0199505060018101905061138e565b50829750879550505050505092915050565b600060208201905081810360008301526113f28184611363565b905092915050565b600060a08201905061140f60008301886111e8565b61141c60208301876111be565b61142960408301866111be565b61143660608301856111be565b61144360808301846111be565b9695505050505050565b61145681611297565b82525050565b600060c08201905081810360008301526114768189611070565b9050818103602083015261148a8188611070565b905061149960408301876111be565b6114a660608301866111be565b6114b3608083018561144d565b6114c060a083018461144d565b979650505050505050565b7f4e487b7100000000000000000000000000000000000000000000000000000000600052602260045260246000fd5b6000600282049050600182168061151257607f821691505b602082108103611525576115246114cb565b5b50919050565b7f4f6e6c7920746865206d616e616765722063616e20706572666f726d2074686960008201527f7320616374696f6e000000000000000000000000000000000000000000000000602082015250565b6000611587602883611024565b91506115928261152b565b604082019050919050565b600060208201905081810360008301526115b68161157a565b9050919050565b7f496e76616c6964206d696c6573746f6e6520696e646578000000000000000000600082015250565b60006115f3601783611024565b91506115fe826115bd565b602082019050919050565b60006020820190508181036000830152611622816115e6565b9050919050565b7f4e487b7100000000000000000000000000000000000000000000000000000000600052603260045260246000fd5b7f4d696c6573746f6e65206e6f7420796574207665726966696564000000000000600082015250565b600061168e601a83611024565b915061169982611658565b602082019050919050565b600060208201905081810360008301526116bd81611681565b9050919050565b7f4d696c6573746f6e6520616c72656164792077697468647261776e0000000000600082015250565b60006116fa601b83611024565b9150611705826116c4565b602082019050919050565b60006020820190508181036000830152611729816116ed565b9050919050565b7f4d696c6573746f6e6520676f616c20686173206e6f74206265656e206d657400600082015250565b6000611766601f83611024565b915061177182611730565b602082019050919050565b6000602082019050818103600083015261179581611759565b9050919050565b7f496e73756666696369656e7420636f6e74726163742062616c616e6365000000600082015250565b60006117d2601d83611024565b91506117dd8261179c565b602082019050919050565b60006020820190508181036000830152611801816117c5565b9050919050565b600060408201905061181d60008301856111e8565b61182a60208301846111be565b9392505050565b7f4d696c6573746f6e6520616c7265616479207665726966696564000000000000600082015250565b6000611867601a83611024565b915061187282611831565b602082019050919050565b600060208201905081810360008301526118968161185a565b9050919050565b60008190508160005260206000209050919050565b600081546118bf816114fa565b6118c98186611024565b945060018216600081146118e457600181146118fa5761192d565b60ff19831686528115156020028601935061192d565b6119038561189d565b60005b8381101561192557815481890152600182019150602081019050611906565b808801955050505b50505092915050565b600060408201905061194b60008301856111be565b818103602083015261195d81846118b2565b90509392505050565b7f436f6e747269627574696f6e206d75737420626520677265617465722074686160008201527f6e20300000000000000000000000000000000000000000000000000000000000602082015250565b60006119c2602383611024565b91506119cd82611966565b604082019050919050565b600060208201905081810360008301526119f1816119b5565b9050919050565b7f4e487b7100000000000000000000000000000000000000000000000000000000600052601160045260246000fd5b6000611a32826110d0565b9150611a3d836110d0565b9250828201905080821115611a5557611a546119f8565b5b92915050565b6000611a66826110d0565b9150611a71836110d0565b9250828203905081811115611a8957611a886119f8565b5b92915050565b6000604082019050611aa460008301856111be565b611ab160208301846111be565b9392505050565b6000611ac3826110d0565b91507fffffffffffffffffffffffffffffffffffffffffffffffffffffffffffffffff8203611af557611af46119f8565b5b60018201905091905056fea2646970667358221220ad5a1c1cb358860609c17084439ca41e7bbbe82d46c90f62587dc25c1ed0036264736f6c634300081c0033a2646970667358221220f63c6e840b681b69371c4c29ecdc0c4eb8207937e4fe337bf0f7034973b29dc364736f6c634300081c0033",
  "linkReferences": {},
  "deployedLinkReferences": {}
}